{
  "_format": "hh-sol-artifact-1",
  "contractName": "Vault",
  "sourceName": "contracts/Vault.sol",
  "abi": [
    {
      "inputs": [
        {
          "internalType": "address",
          "name": "_token",
          "type": "address"
        }
      ],
      "stateMutability": "nonpayable",
      "type": "constructor"
    },
    {
      "inputs": [
        {
          "internalType": "address",
          "name": "_user",
          "type": "address"
        }
      ],
      "name": "balanceOf",
      "outputs": [
        {
          "internalType": "uint256",
          "name": "balance",
          "type": "uint256"
        }
      ],
      "stateMutability": "view",
      "type": "function"
    },
    {
      "inputs": [
        {
          "internalType": "address",
          "name": "user",
          "type": "address"
        },
        {
          "internalType": "uint256",
          "name": "amount",
          "type": "uint256"
        }
      ],
      "name": "deposit",
      "outputs": [],
      "stateMutability": "nonpayable",
      "type": "function"
    },
    {
      "inputs": [
        {
          "internalType": "address",
          "name": "",
          "type": "address"
        }
      ],
      "name": "deposited",
      "outputs": [
        {
          "internalType": "uint256",
          "name": "",
          "type": "uint256"
        }
      ],
      "stateMutability": "view",
      "type": "function"
    },
    {
      "inputs": [
        {
          "internalType": "address",
          "name": "user",
          "type": "address"
        },
        {
          "internalType": "uint256",
          "name": "amount",
          "type": "uint256"
        },
        {
          "internalType": "uint256",
          "name": "deadline",
          "type": "uint256"
        },
        {
          "internalType": "uint8",
          "name": "v",
          "type": "uint8"
        },
        {
          "internalType": "bytes32",
          "name": "r",
          "type": "bytes32"
        },
        {
          "internalType": "bytes32",
          "name": "s",
          "type": "bytes32"
        }
      ],
      "name": "permitDeposit",
      "outputs": [],
      "stateMutability": "nonpayable",
      "type": "function"
    },
    {
      "inputs": [],
      "name": "token",
      "outputs": [
        {
          "internalType": "address",
          "name": "",
          "type": "address"
        }
      ],
      "stateMutability": "view",
      "type": "function"
    },
    {
      "inputs": [
        {
          "internalType": "address",
          "name": "_assetAddress",
          "type": "address"
        },
        {
          "internalType": "address",
          "name": "_user",
          "type": "address"
        }
      ],
      "name": "withdrawToken",
      "outputs": [],
      "stateMutability": "nonpayable",
      "type": "function"
    }
  ],
  "bytecode": "0x60a060405234801561001057600080fd5b50604051610b5b380380610b5b83398181016040528101906100329190610084565b8073ffffffffffffffffffffffffffffffffffffffff1660808173ffffffffffffffffffffffffffffffffffffffff1660601b81525050506100f6565b60008151905061007e816100df565b92915050565b60006020828403121561009657600080fd5b60006100a48482850161006f565b91505092915050565b60006100b8826100bf565b9050919050565b600073ffffffffffffffffffffffffffffffffffffffff82169050919050565b6100e8816100ad565b81146100f357600080fd5b50565b60805160601c610a3961012260003960008181610254015281816103e301526104a40152610a396000f3fe608060405234801561001057600080fd5b50600436106100625760003560e01c80633aeac4e11461006757806347e7ef241461008357806370a082311461009f5780638f7b1bca146100cf578063cb13cddb146100eb578063fc0c546a1461011b575b600080fd5b610081600480360381019061007c9190610558565b610139565b005b61009d60048036038101906100989190610594565b610252565b005b6100b960048036038101906100b4919061052f565b610399565b6040516100c6919061082e565b60405180910390f35b6100e960048036038101906100e491906105d0565b6103e1565b005b6101056004803603810190610100919061052f565b61048a565b604051610112919061082e565b60405180910390f35b6101236104a2565b6040516101309190610704565b60405180910390f35b60008060008373ffffffffffffffffffffffffffffffffffffffff1673ffffffffffffffffffffffffffffffffffffffff168152602001908152602001600020549050600081116101bf576040517f08c379a00000000000000000000000000000000000000000000000000000000081526004016101b6906107ee565b60405180910390fd5b8273ffffffffffffffffffffffffffffffffffffffff1663a9059cbb83836040518363ffffffff1660e01b81526004016101fa9291906107c5565b602060405180830381600087803b15801561021457600080fd5b505af1158015610228573d6000803e3d6000fd5b505050506040513d601f19601f8201168201806040525081019061024c9190610659565b50505050565b7f000000000000000000000000000000000000000000000000000000000000000073ffffffffffffffffffffffffffffffffffffffff166323b872dd3330846040518463ffffffff1660e01b81526004016102af9392919061071f565b602060405180830381600087803b1580156102c957600080fd5b505af11580156102dd573d6000803e3d6000fd5b505050506040513d601f19601f820116820180604052508101906103019190610659565b610340576040517f08c379a00000000000000000000000000000000000000000000000000000000081526004016103379061080e565b60405180910390fd5b806000808473ffffffffffffffffffffffffffffffffffffffff1673ffffffffffffffffffffffffffffffffffffffff168152602001908152602001600020600082825461038e919061085a565b925050819055505050565b60008060008373ffffffffffffffffffffffffffffffffffffffff1673ffffffffffffffffffffffffffffffffffffffff168152602001908152602001600020549050919050565b7f000000000000000000000000000000000000000000000000000000000000000073ffffffffffffffffffffffffffffffffffffffff1663d505accf333088888888886040518863ffffffff1660e01b81526004016104469796959493929190610756565b600060405180830381600087803b15801561046057600080fd5b505af1158015610474573d6000803e3d6000fd5b505050506104828686610252565b505050505050565b60006020528060005260406000206000915090505481565b7f000000000000000000000000000000000000000000000000000000000000000081565b6000813590506104d581610990565b92915050565b6000815190506104ea816109a7565b92915050565b6000813590506104ff816109be565b92915050565b600081359050610514816109d5565b92915050565b600081359050610529816109ec565b92915050565b60006020828403121561054157600080fd5b600061054f848285016104c6565b91505092915050565b6000806040838503121561056b57600080fd5b6000610579858286016104c6565b925050602061058a858286016104c6565b9150509250929050565b600080604083850312156105a757600080fd5b60006105b5858286016104c6565b92505060206105c685828601610505565b9150509250929050565b60008060008060008060c087890312156105e957600080fd5b60006105f789828a016104c6565b965050602061060889828a01610505565b955050604061061989828a01610505565b945050606061062a89828a0161051a565b935050608061063b89828a016104f0565b92505060a061064c89828a016104f0565b9150509295509295509295565b60006020828403121561066b57600080fd5b6000610679848285016104db565b91505092915050565b61068b816108b0565b82525050565b61069a816108ce565b82525050565b60006106ad600f83610849565b91506106b88261093e565b602082019050919050565b60006106d0601383610849565b91506106db82610967565b602082019050919050565b6106ef816108f8565b82525050565b6106fe81610902565b82525050565b60006020820190506107196000830184610682565b92915050565b60006060820190506107346000830186610682565b6107416020830185610682565b61074e60408301846106e6565b949350505050565b600060e08201905061076b600083018a610682565b6107786020830189610682565b61078560408301886106e6565b61079260608301876106e6565b61079f60808301866106f5565b6107ac60a0830185610691565b6107b960c0830184610691565b98975050505050505050565b60006040820190506107da6000830185610682565b6107e760208301846106e6565b9392505050565b60006020820190508181036000830152610807816106a0565b9050919050565b60006020820190508181036000830152610827816106c3565b9050919050565b600060208201905061084360008301846106e6565b92915050565b600082825260208201905092915050565b6000610865826108f8565b9150610870836108f8565b9250827fffffffffffffffffffffffffffffffffffffffffffffffffffffffffffffffff038211156108a5576108a461090f565b5b828201905092915050565b60006108bb826108d8565b9050919050565b60008115159050919050565b6000819050919050565b600073ffffffffffffffffffffffffffffffffffffffff82169050919050565b6000819050919050565b600060ff82169050919050565b7f4e487b7100000000000000000000000000000000000000000000000000000000600052601160045260246000fd5b7f6d757374206861766520746f6b656e0000000000000000000000000000000000600082015250565b7f5472616e736665722066726f6d206572726f7200000000000000000000000000600082015250565b610999816108b0565b81146109a457600080fd5b50565b6109b0816108c2565b81146109bb57600080fd5b50565b6109c7816108ce565b81146109d257600080fd5b50565b6109de816108f8565b81146109e957600080fd5b50565b6109f581610902565b8114610a0057600080fd5b5056fea2646970667358221220c0e55d6a36ec39cbaa2ec08270791b1082d33de2fe82a1fb8febe675124fb9d664736f6c63430008040033",
  "linkReferences": {},
  "deployedLinkReferences": {}
}